{
  "contractName": "eThaler",
  "abi": [
    {
      "inputs": [],
      "payable": false,
      "stateMutability": "nonpayable",
      "type": "constructor"
    },
    {
      "anonymous": false,
      "inputs": [
        {
          "indexed": true,
          "internalType": "address",
          "name": "account",
          "type": "address"
        },
        {
          "indexed": true,
          "internalType": "address",
          "name": "operator",
          "type": "address"
        },
        {
          "indexed": false,
          "internalType": "bool",
          "name": "approved",
          "type": "bool"
        }
      ],
      "name": "ApprovalForAll",
      "type": "event"
    },
    {
      "anonymous": false,
      "inputs": [
        {
          "indexed": true,
          "internalType": "address",
          "name": "account",
          "type": "address"
        },
        {
          "indexed": false,
          "internalType": "uint256",
          "name": "tokenId",
          "type": "uint256"
        }
      ],
      "name": "RegisteredDealer",
      "type": "event"
    },
    {
      "anonymous": false,
      "inputs": [
        {
          "indexed": false,
          "internalType": "uint256",
          "name": "tokenId",
          "type": "uint256"
        },
        {
          "indexed": false,
          "internalType": "string",
          "name": "tokenName",
          "type": "string"
        },
        {
          "indexed": false,
          "internalType": "string",
          "name": "ttfURL",
          "type": "string"
        }
      ],
      "name": "TokenDefined",
      "type": "event"
    },
    {
      "anonymous": false,
      "inputs": [
        {
          "indexed": true,
          "internalType": "address",
          "name": "operator",
          "type": "address"
        },
        {
          "indexed": true,
          "internalType": "address",
          "name": "from",
          "type": "address"
        },
        {
          "indexed": true,
          "internalType": "address",
          "name": "to",
          "type": "address"
        },
        {
          "indexed": false,
          "internalType": "uint256[]",
          "name": "ids",
          "type": "uint256[]"
        },
        {
          "indexed": false,
          "internalType": "uint256[]",
          "name": "values",
          "type": "uint256[]"
        }
      ],
      "name": "TransferBatch",
      "type": "event"
    },
    {
      "anonymous": false,
      "inputs": [
        {
          "indexed": true,
          "internalType": "address",
          "name": "operator",
          "type": "address"
        },
        {
          "indexed": true,
          "internalType": "address",
          "name": "from",
          "type": "address"
        },
        {
          "indexed": true,
          "internalType": "address",
          "name": "to",
          "type": "address"
        },
        {
          "indexed": false,
          "internalType": "uint256",
          "name": "id",
          "type": "uint256"
        },
        {
          "indexed": false,
          "internalType": "uint256",
          "name": "value",
          "type": "uint256"
        }
      ],
      "name": "TransferSingle",
      "type": "event"
    },
    {
      "anonymous": false,
      "inputs": [
        {
          "indexed": false,
          "internalType": "string",
          "name": "value",
          "type": "string"
        },
        {
          "indexed": true,
          "internalType": "uint256",
          "name": "id",
          "type": "uint256"
        }
      ],
      "name": "URI",
      "type": "event"
    },
    {
      "anonymous": false,
      "inputs": [
        {
          "indexed": true,
          "internalType": "address",
          "name": "account",
          "type": "address"
        },
        {
          "indexed": false,
          "internalType": "uint256",
          "name": "tokenId",
          "type": "uint256"
        }
      ],
      "name": "UnregisteredDealer",
      "type": "event"
    },
    {
      "constant": true,
      "inputs": [
        {
          "internalType": "address[]",
          "name": "accounts",
          "type": "address[]"
        },
        {
          "internalType": "uint256[]",
          "name": "ids",
          "type": "uint256[]"
        }
      ],
      "name": "balanceOfBatch",
      "outputs": [
        {
          "internalType": "uint256[]",
          "name": "",
          "type": "uint256[]"
        }
      ],
      "payable": false,
      "stateMutability": "view",
      "type": "function"
    },
    {
      "constant": true,
      "inputs": [
        {
          "internalType": "address",
          "name": "account",
          "type": "address"
        },
        {
          "internalType": "address",
          "name": "operator",
          "type": "address"
        }
      ],
      "name": "isApprovedForAll",
      "outputs": [
        {
          "internalType": "bool",
          "name": "",
          "type": "bool"
        }
      ],
      "payable": false,
      "stateMutability": "view",
      "type": "function"
    },
    {
      "constant": true,
      "inputs": [],
      "name": "owner",
      "outputs": [
        {
          "internalType": "address",
          "name": "",
          "type": "address"
        }
      ],
      "payable": false,
      "stateMutability": "view",
      "type": "function"
    },
    {
      "constant": false,
      "inputs": [
        {
          "internalType": "address",
          "name": "from",
          "type": "address"
        },
        {
          "internalType": "address",
          "name": "to",
          "type": "address"
        },
        {
          "internalType": "uint256[]",
          "name": "ids",
          "type": "uint256[]"
        },
        {
          "internalType": "uint256[]",
          "name": "values",
          "type": "uint256[]"
        },
        {
          "internalType": "bytes",
          "name": "data",
          "type": "bytes"
        }
      ],
      "name": "safeBatchTransferFrom",
      "outputs": [],
      "payable": false,
      "stateMutability": "nonpayable",
      "type": "function"
    },
    {
      "constant": false,
      "inputs": [
        {
          "internalType": "address",
          "name": "from",
          "type": "address"
        },
        {
          "internalType": "address",
          "name": "to",
          "type": "address"
        },
        {
          "internalType": "uint256",
          "name": "id",
          "type": "uint256"
        },
        {
          "internalType": "uint256",
          "name": "value",
          "type": "uint256"
        },
        {
          "internalType": "bytes",
          "name": "data",
          "type": "bytes"
        }
      ],
      "name": "safeTransferFrom",
      "outputs": [],
      "payable": false,
      "stateMutability": "nonpayable",
      "type": "function"
    },
    {
      "constant": false,
      "inputs": [
        {
          "internalType": "address",
          "name": "operator",
          "type": "address"
        },
        {
          "internalType": "bool",
          "name": "approved",
          "type": "bool"
        }
      ],
      "name": "setApprovalForAll",
      "outputs": [],
      "payable": false,
      "stateMutability": "nonpayable",
      "type": "function"
    },
    {
      "constant": true,
      "inputs": [
        {
          "internalType": "bytes4",
          "name": "interfaceId",
          "type": "bytes4"
        }
      ],
      "name": "supportsInterface",
      "outputs": [
        {
          "internalType": "bool",
          "name": "",
          "type": "bool"
        }
      ],
      "payable": false,
      "stateMutability": "view",
      "type": "function"
    },
    {
      "constant": true,
      "inputs": [],
      "name": "getAllTokenIds",
      "outputs": [
        {
          "internalType": "uint256[]",
          "name": "",
          "type": "uint256[]"
        }
      ],
      "payable": false,
      "stateMutability": "view",
      "type": "function"
    },
    {
      "constant": false,
      "inputs": [
        {
          "internalType": "uint256",
          "name": "tokenId",
          "type": "uint256"
        },
        {
          "internalType": "string",
          "name": "name",
          "type": "string"
        },
        {
          "internalType": "uint8",
          "name": "numDecimals",
          "type": "uint8"
        },
        {
          "internalType": "string",
          "name": "ttfUrl",
          "type": "string"
        }
      ],
      "name": "addNewTokenDefinition",
      "outputs": [],
      "payable": false,
      "stateMutability": "nonpayable",
      "type": "function"
    },
    {
      "constant": false,
      "inputs": [
        {
          "internalType": "uint256",
          "name": "tokenId",
          "type": "uint256"
        },
        {
          "internalType": "uint256",
          "name": "amount",
          "type": "uint256"
        },
        {
          "internalType": "bytes",
          "name": "callbackData",
          "type": "bytes"
        }
      ],
      "name": "mint",
      "outputs": [],
      "payable": false,
      "stateMutability": "nonpayable",
      "type": "function"
    },
    {
      "constant": false,
      "inputs": [
        {
          "internalType": "uint256",
          "name": "tokenId",
          "type": "uint256"
        },
        {
          "internalType": "uint256",
          "name": "amount",
          "type": "uint256"
        }
      ],
      "name": "burn",
      "outputs": [],
      "payable": false,
      "stateMutability": "nonpayable",
      "type": "function"
    },
    {
      "constant": true,
      "inputs": [],
      "name": "isOwner",
      "outputs": [
        {
          "internalType": "bool",
          "name": "",
          "type": "bool"
        }
      ],
      "payable": false,
      "stateMutability": "view",
      "type": "function"
    },
    {
      "constant": true,
      "inputs": [
        {
          "internalType": "uint256",
          "name": "tokenId",
          "type": "uint256"
        }
      ],
      "name": "getDecimals",
      "outputs": [
        {
          "internalType": "uint8",
          "name": "",
          "type": "uint8"
        }
      ],
      "payable": false,
      "stateMutability": "view",
      "type": "function"
    },
    {
      "constant": true,
      "inputs": [
        {
          "internalType": "uint256",
          "name": "tokenId",
          "type": "uint256"
        }
      ],
      "name": "getTokenName",
      "outputs": [
        {
          "internalType": "string",
          "name": "",
          "type": "string"
        }
      ],
      "payable": false,
      "stateMutability": "view",
      "type": "function"
    },
    {
      "constant": true,
      "inputs": [
        {
          "internalType": "uint256",
          "name": "tokenId",
          "type": "uint256"
        }
      ],
      "name": "getTTF_URL",
      "outputs": [
        {
          "internalType": "string",
          "name": "",
          "type": "string"
        }
      ],
      "payable": false,
      "stateMutability": "view",
      "type": "function"
    },
    {
      "constant": true,
      "inputs": [
        {
          "internalType": "uint256",
          "name": "tokenId",
          "type": "uint256"
        }
      ],
      "name": "isPaused",
      "outputs": [
        {
          "internalType": "bool",
          "name": "",
          "type": "bool"
        }
      ],
      "payable": false,
      "stateMutability": "view",
      "type": "function"
    },
    {
      "constant": false,
      "inputs": [
        {
          "internalType": "uint256",
          "name": "tokenId",
          "type": "uint256"
        }
      ],
      "name": "pause",
      "outputs": [],
      "payable": false,
      "stateMutability": "nonpayable",
      "type": "function"
    },
    {
      "constant": false,
      "inputs": [
        {
          "internalType": "uint256",
          "name": "tokenId",
          "type": "uint256"
        }
      ],
      "name": "resume",
      "outputs": [],
      "payable": false,
      "stateMutability": "nonpayable",
      "type": "function"
    },
    {
      "constant": true,
      "inputs": [
        {
          "internalType": "address",
          "name": "account",
          "type": "address"
        },
        {
          "internalType": "uint256",
          "name": "tokenId",
          "type": "uint256"
        }
      ],
      "name": "isDealerRegistered",
      "outputs": [
        {
          "internalType": "bool",
          "name": "",
          "type": "bool"
        }
      ],
      "payable": false,
      "stateMutability": "view",
      "type": "function"
    },
    {
      "constant": false,
      "inputs": [
        {
          "internalType": "address",
          "name": "account",
          "type": "address"
        },
        {
          "internalType": "uint256",
          "name": "tokenId",
          "type": "uint256"
        }
      ],
      "name": "registerDealer",
      "outputs": [],
      "payable": false,
      "stateMutability": "nonpayable",
      "type": "function"
    },
    {
      "constant": false,
      "inputs": [
        {
          "internalType": "address",
          "name": "account",
          "type": "address"
        },
        {
          "internalType": "uint256",
          "name": "tokenId",
          "type": "uint256"
        }
      ],
      "name": "unregisterDealer",
      "outputs": [],
      "payable": false,
      "stateMutability": "nonpayable",
      "type": "function"
    },
    {
      "constant": false,
      "inputs": [
        {
          "internalType": "address",
          "name": "to",
          "type": "address"
        },
        {
          "internalType": "uint256",
          "name": "tokenId",
          "type": "uint256"
        },
        {
          "internalType": "uint256",
          "name": "value",
          "type": "uint256"
        }
      ],
      "name": "transfer",
      "outputs": [],
      "payable": false,
      "stateMutability": "nonpayable",
      "type": "function"
    },
    {
      "constant": true,
      "inputs": [
        {
          "internalType": "address",
          "name": "account",
          "type": "address"
        },
        {
          "internalType": "uint256",
          "name": "tokenId",
          "type": "uint256"
        }
      ],
      "name": "balanceOf",
      "outputs": [
        {
          "internalType": "uint256",
          "name": "",
          "type": "uint256"
        }
      ],
      "payable": false,
      "stateMutability": "view",
      "type": "function"
    },
    {
      "constant": true,
      "inputs": [
        {
          "internalType": "uint256",
          "name": "tokenId",
          "type": "uint256"
        }
      ],
      "name": "balanceOf",
      "outputs": [
        {
          "internalType": "uint256",
          "name": "",
          "type": "uint256"
        }
      ],
      "payable": false,
      "stateMutability": "view",
      "type": "function"
    }
  ],
  "bytecode": "0x60806040523480156200001157600080fd5b506200002a6301ffc9a760e01b6200015160201b60201c565b6200010a600073ffffffffffffffffffffffffffffffffffffffff1663e985e9c5905060e01b600073ffffffffffffffffffffffffffffffffffffffff1663a22cb465905060e01b600073ffffffffffffffffffffffffffffffffffffffff16634e1273f4905060e01b600073ffffffffffffffffffffffffffffffffffffffff1662fdd58e905060e01b600073ffffffffffffffffffffffffffffffffffffffff16632eb2c2d6905060e01b600073ffffffffffffffffffffffffffffffffffffffff1663f242432a905060e01b18181818186200015160201b60201c565b33600360006101000a81548173ffffffffffffffffffffffffffffffffffffffff021916908373ffffffffffffffffffffffffffffffffffffffff1602179055506200025a565b63ffffffff60e01b817bffffffffffffffffffffffffffffffffffffffffffffffffffffffff19161415620001ee576040517f08c379a000000000000000000000000000000000000000000000000000000000815260040180806020018281038252601c8152602001807f4552433136353a20696e76616c696420696e746572666163652069640000000081525060200191505060405180910390fd5b6001600080837bffffffffffffffffffffffffffffffffffffffffffffffffffffffff19167bffffffffffffffffffffffffffffffffffffffffffffffffffffffff1916815260200190815260200160002060006101000a81548160ff02191690831515021790555050565b614862806200026a6000396000f3fe608060405234801561001057600080fd5b50600436106101575760003560e01c80638f32d59b116100c3578063bdf2a43c1161007c578063bdf2a43c14610a3d578063c4b3b37b14610a83578063dbe16c0714610ad1578063e985e9c514610b78578063f242432a14610bf4578063ff42fe1814610cc157610157565b80638f32d59b146108a45780639cc7f708146108c6578063a22cb46514610908578063b390c0ab14610958578063b8c43a9414610990578063bdbed722146109de57610157565b80632eb2c2d6116101155780632eb2c2d61461041b578063414000b51461057e5780634e1273f4146105ac57806386ce73741461074d5780638bf551fc146107f45780638da5cb5b1461085a57610157565b8062fdd58e1461015c57806301ffc9a7146101be57806308dc9f4214610223578063095bcdb6146102b0578063136439dd1461030857806322b76fde14610336575b600080fd5b6101a86004803603604081101561017257600080fd5b81019080803573ffffffffffffffffffffffffffffffffffffffff16906020019092919080359060200190929190505050610d09565b6040518082815260200191505060405180910390f35b610209600480360360208110156101d457600080fd5b8101908080357bffffffffffffffffffffffffffffffffffffffffffffffffffffffff19169060200190929190505050610de0565b604051808215151515815260200191505060405180910390f35b6102ae6004803603606081101561023957600080fd5b8101908080359060200190929190803590602001909291908035906020019064010000000081111561026a57600080fd5b82018360208201111561027c57600080fd5b8035906020019184600183028401116401000000008311171561029e57600080fd5b9091929391929390505050610e47565b005b610306600480360360608110156102c657600080fd5b81019080803573ffffffffffffffffffffffffffffffffffffffff1690602001909291908035906020019092919080359060200190929190505050611040565b005b6103346004803603602081101561031e57600080fd5b81019080803590602001909291905050506113b8565b005b6104196004803603608081101561034c57600080fd5b81019080803590602001909291908035906020019064010000000081111561037357600080fd5b82018360208201111561038557600080fd5b803590602001918460018302840111640100000000831117156103a757600080fd5b9091929391929390803560ff169060200190929190803590602001906401000000008111156103d557600080fd5b8201836020820111156103e757600080fd5b8035906020019184600183028401116401000000008311171561040957600080fd5b90919293919293905050506115a8565b005b61057c600480360360a081101561043157600080fd5b81019080803573ffffffffffffffffffffffffffffffffffffffff169060200190929190803573ffffffffffffffffffffffffffffffffffffffff1690602001909291908035906020019064010000000081111561048e57600080fd5b8201836020820111156104a057600080fd5b803590602001918460208302840111640100000000831117156104c257600080fd5b9091929391929390803590602001906401000000008111156104e357600080fd5b8201836020820111156104f557600080fd5b8035906020019184602083028401116401000000008311171561051757600080fd5b90919293919293908035906020019064010000000081111561053857600080fd5b82018360208201111561054a57600080fd5b8035906020019184600183028401116401000000008311171561056c57600080fd5b9091929391929390505050611826565b005b6105aa6004803603602081101561059457600080fd5b8101908080359060200190929190505050611d3b565b005b6106f6600480360360408110156105c257600080fd5b81019080803590602001906401000000008111156105df57600080fd5b8201836020820111156105f157600080fd5b8035906020019184602083028401116401000000008311171561061357600080fd5b919080806020026020016040519081016040528093929190818152602001838360200280828437600081840152601f19601f8201169050808301925050505050505091929192908035906020019064010000000081111561067357600080fd5b82018360208201111561068557600080fd5b803590602001918460208302840111640100000000831117156106a757600080fd5b919080806020026020016040519081016040528093929190818152602001838360200280828437600081840152601f19601f820116905080830192505050505050509192919290505050611f24565b6040518080602001828103825283818151815260200191508051906020019060200280838360005b8381101561073957808201518184015260208101905061071e565b505050509050019250505060405180910390f35b6107796004803603602081101561076357600080fd5b8101908080359060200190929190505050612102565b6040518080602001828103825283818151815260200191508051906020019080838360005b838110156107b957808201518184015260208101905061079e565b50505050905090810190601f1680156107e65780820380516001836020036101000a031916815260200191505b509250505060405180910390f35b6108406004803603604081101561080a57600080fd5b81019080803573ffffffffffffffffffffffffffffffffffffffff1690602001909291908035906020019092919050505061223b565b604051808215151515815260200191505060405180910390f35b610862612330565b604051808273ffffffffffffffffffffffffffffffffffffffff1673ffffffffffffffffffffffffffffffffffffffff16815260200191505060405180910390f35b6108ac612356565b604051808215151515815260200191505060405180910390f35b6108f2600480360360208110156108dc57600080fd5b81019080803590602001909291905050506123ae565b6040518082815260200191505060405180910390f35b6109566004803603604081101561091e57600080fd5b81019080803573ffffffffffffffffffffffffffffffffffffffff16906020019092919080351515906020019092919050505061243e565b005b61098e6004803603604081101561096e57600080fd5b8101908080359060200190929190803590602001909291905050506125c4565b005b6109dc600480360360408110156109a657600080fd5b81019080803573ffffffffffffffffffffffffffffffffffffffff16906020019092919080359060200190929190505050612776565b005b6109e66129d2565b6040518080602001828103825283818151815260200191508051906020019060200280838360005b83811015610a29578082015181840152602081019050610a0e565b505050509050019250505060405180910390f35b610a6960048036036020811015610a5357600080fd5b8101908080359060200190929190505050612a2a565b604051808215151515815260200191505060405180910390f35b610acf60048036036040811015610a9957600080fd5b81019080803573ffffffffffffffffffffffffffffffffffffffff16906020019092919080359060200190929190505050612ad2565b005b610afd60048036036020811015610ae757600080fd5b8101908080359060200190929190505050612d9c565b6040518080602001828103825283818151815260200191508051906020019080838360005b83811015610b3d578082015181840152602081019050610b22565b50505050905090810190601f168015610b6a5780820380516001836020036101000a031916815260200191505b509250505060405180910390f35b610bda60048036036040811015610b8e57600080fd5b81019080803573ffffffffffffffffffffffffffffffffffffffff169060200190929190803573ffffffffffffffffffffffffffffffffffffffff169060200190929190505050612ed5565b604051808215151515815260200191505060405180910390f35b610cbf600480360360a0811015610c0a57600080fd5b81019080803573ffffffffffffffffffffffffffffffffffffffff169060200190929190803573ffffffffffffffffffffffffffffffffffffffff169060200190929190803590602001909291908035906020019092919080359060200190640100000000811115610c7b57600080fd5b820183602082011115610c8d57600080fd5b80359060200191846001830284011164010000000083111715610caf57600080fd5b9091929391929390505050612f69565b005b610ced60048036036020811015610cd757600080fd5b81019080803590602001909291905050506132f1565b604051808260ff1660ff16815260200191505060405180910390f35b6000600360009054906101000a900473ffffffffffffffffffffffffffffffffffffffff1673ffffffffffffffffffffffffffffffffffffffff163373ffffffffffffffffffffffffffffffffffffffff1614610dce576040517f08c379a00000000000000000000000000000000000000000000000000000000081526004018080602001828103825260168152602001807f596f7520617265206e6f7420746865206f776e65722e0000000000000000000081525060200191505060405180910390fd5b610dd88383613399565b905092915050565b6000806000837bffffffffffffffffffffffffffffffffffffffffffffffffffffffff19167bffffffffffffffffffffffffffffffffffffffffffffffffffffffff1916815260200190815260200160002060009054906101000a900460ff169050919050565b600360009054906101000a900473ffffffffffffffffffffffffffffffffffffffff1673ffffffffffffffffffffffffffffffffffffffff163373ffffffffffffffffffffffffffffffffffffffff1614610f0a576040517f08c379a00000000000000000000000000000000000000000000000000000000081526004018080602001828103825260168152602001807f596f7520617265206e6f7420746865206f776e65722e0000000000000000000081525060200191505060405180910390fd5b610f1384613479565b610f85576040517f08c379a000000000000000000000000000000000000000000000000000000000815260040180806020018281038252601f8152602001807f655468616c65723a20746f6b656e496420646f6573206e6f742065786973740081525060200191505060405180910390fd5b60001515610f9285612a2a565b151514610fea576040517f08c379a00000000000000000000000000000000000000000000000000000000081526004018080602001828103825260328152602001806146bf6032913960400191505060405180910390fd5b61103a33858585858080601f016020809104026020016040519081016040528093929190818152602001838380828437600081840152601f19601f820116905080830192505050505050506134cf565b50505050565b61104982613479565b6110bb576040517f08c379a000000000000000000000000000000000000000000000000000000000815260040180806020018281038252601f8152602001807f655468616c65723a20746f6b656e496420646f6573206e6f742065786973740081525060200191505060405180910390fd5b600015156110c883612a2a565b151514611120576040517f08c379a00000000000000000000000000000000000000000000000000000000081526004018080602001828103825260338152602001806144456033913960400191505060405180910390fd5b61114833600460008581526020019081526020016000206004016136a690919063ffffffff16565b61119d576040517f08c379a00000000000000000000000000000000000000000000000000000000081526004018080602001828103825260288152602001806143766028913960400191505060405180910390fd5b6111c583600460008581526020019081526020016000206004016136a690919063ffffffff16565b61121a576040517f08c379a000000000000000000000000000000000000000000000000000000000815260040180806020018281038252602a815260200180614478602a913960400191505060405180910390fd5b8273ffffffffffffffffffffffffffffffffffffffff163373ffffffffffffffffffffffffffffffffffffffff16141561129f576040517f08c379a000000000000000000000000000000000000000000000000000000000815260040180806020018281038252602f815260200180614690602f913960400191505060405180910390fd5b3073ffffffffffffffffffffffffffffffffffffffff1663f242432a338585856040518563ffffffff1660e01b8152600401808573ffffffffffffffffffffffffffffffffffffffff1673ffffffffffffffffffffffffffffffffffffffff1681526020018473ffffffffffffffffffffffffffffffffffffffff1673ffffffffffffffffffffffffffffffffffffffff16815260200183815260200182815260200180602001828103825260048152602001807f307830300000000000000000000000000000000000000000000000000000000081525060200195505050505050600060405180830381600087803b15801561139b57600080fd5b505af11580156113af573d6000803e3d6000fd5b50505050505050565b600360009054906101000a900473ffffffffffffffffffffffffffffffffffffffff1673ffffffffffffffffffffffffffffffffffffffff163373ffffffffffffffffffffffffffffffffffffffff161461147b576040517f08c379a00000000000000000000000000000000000000000000000000000000081526004018080602001828103825260168152602001807f596f7520617265206e6f7420746865206f776e65722e0000000000000000000081525060200191505060405180910390fd5b61148481613479565b6114f6576040517f08c379a000000000000000000000000000000000000000000000000000000000815260040180806020018281038252601f8152602001807f655468616c65723a20746f6b656e496420646f6573206e6f742065786973740081525060200191505060405180910390fd5b600015156004600083815260200190815260200160002060020160019054906101000a900460ff16151514611576576040517f08c379a000000000000000000000000000000000000000000000000000000000815260040180806020018281038252602981526020018061434d6029913960400191505060405180910390fd5b60016004600083815260200190815260200160002060020160016101000a81548160ff02191690831515021790555050565b600360009054906101000a900473ffffffffffffffffffffffffffffffffffffffff1673ffffffffffffffffffffffffffffffffffffffff163373ffffffffffffffffffffffffffffffffffffffff161461166b576040517f08c379a00000000000000000000000000000000000000000000000000000000081526004018080602001828103825260168152602001807f596f7520617265206e6f7420746865206f776e65722e0000000000000000000081525060200191505060405180910390fd5b6000151561167887613479565b1515146116d0576040517f08c379a00000000000000000000000000000000000000000000000000000000081526004018080602001828103825260248152602001806144216024913960400191505060405180910390fd5b600060046000888152602001908152602001600020905086816000018190555085858260010191906117039291906142a7565b50838160020160006101000a81548160ff021916908360ff16021790555082828260030191906117349291906142a7565b5060008160020160016101000a81548160ff02191690831515021790555060058790806001815401808255809150509060018203906000526020600020016000909192909190915055507f4be9800e6736c9e734d9ad841a4fe124fa0b1fc8764a5183b9383fb88f415cd887878786866040518086815260200180602001806020018381038352878782818152602001925080828437600081840152601f19601f8201169050808301925050508381038252858582818152602001925080828437600081840152601f19601f82011690508083019250505097505050505050505060405180910390a150505050505050565b838390508686905014611884576040517f08c379a000000000000000000000000000000000000000000000000000000000815260040180806020018281038252602e8152602001806146f1602e913960400191505060405180910390fd5b600073ffffffffffffffffffffffffffffffffffffffff168773ffffffffffffffffffffffffffffffffffffffff16141561190a576040517f08c379a00000000000000000000000000000000000000000000000000000000081526004018080602001828103825260288152602001806143f96028913960400191505060405180910390fd5b3373ffffffffffffffffffffffffffffffffffffffff168873ffffffffffffffffffffffffffffffffffffffff16148061195157506001151561194d8933612ed5565b1515145b6119a6576040517f08c379a00000000000000000000000000000000000000000000000000000000081526004018080602001828103825260378152602001806146596037913960400191505060405180910390fd5b60008090505b86869050811015611b7a5760008787838181106119c557fe5b90506020020135905060008686848181106119dc57fe5b905060200201359050611a62816040518060600160405280603d81526020016147c0603d91396001600086815260200190815260200160002060008f73ffffffffffffffffffffffffffffffffffffffff1673ffffffffffffffffffffffffffffffffffffffff168152602001908152602001600020546137849092919063ffffffff16565b6001600084815260200190815260200160002060008d73ffffffffffffffffffffffffffffffffffffffff1673ffffffffffffffffffffffffffffffffffffffff16815260200190815260200160002081905550611b19816001600085815260200190815260200160002060008d73ffffffffffffffffffffffffffffffffffffffff1673ffffffffffffffffffffffffffffffffffffffff1681526020019081526020016000205461384490919063ffffffff16565b6001600084815260200190815260200160002060008c73ffffffffffffffffffffffffffffffffffffffff1673ffffffffffffffffffffffffffffffffffffffff1681526020019081526020016000208190555050508060010190506119ac565b508673ffffffffffffffffffffffffffffffffffffffff168873ffffffffffffffffffffffffffffffffffffffff163373ffffffffffffffffffffffffffffffffffffffff167f4a39dc06d4c0dbc64b70af90fd698a233a518aa5d07e595d983b8c0526c8f7fb898989896040518080602001806020018381038352878782818152602001925060200280828437600081840152601f19601f8201169050808301925050508381038252858582818152602001925060200280828437600081840152601f19601f820116905080830192505050965050505050505060405180910390a4611d31338989898980806020026020016040519081016040528093929190818152602001838360200280828437600081840152601f19601f82011690508083019250505050505050888880806020026020016040519081016040528093929190818152602001838360200280828437600081840152601f19601f8201169050808301925050505050505087878080601f016020809104026020016040519081016040528093929190818152602001838380828437600081840152601f19601f820116905080830192505050505050506138cc565b5050505050505050565b600360009054906101000a900473ffffffffffffffffffffffffffffffffffffffff1673ffffffffffffffffffffffffffffffffffffffff163373ffffffffffffffffffffffffffffffffffffffff1614611dfe576040517f08c379a00000000000000000000000000000000000000000000000000000000081526004018080602001828103825260168152602001807f596f7520617265206e6f7420746865206f776e65722e0000000000000000000081525060200191505060405180910390fd5b611e0781613479565b611e79576040517f08c379a000000000000000000000000000000000000000000000000000000000815260040180806020018281038252601f8152602001807f655468616c65723a20746f6b656e496420646f6573206e6f742065786973740081525060200191505060405180910390fd5b6004600082815260200190815260200160002060020160019054906101000a900460ff16611ef2576040517f08c379a00000000000000000000000000000000000000000000000000000000081526004018080602001828103825260258152602001806145346025913960400191505060405180910390fd5b60006004600083815260200190815260200160002060020160016101000a81548160ff02191690831515021790555050565b60608151835114611f80576040517f08c379a00000000000000000000000000000000000000000000000000000000081526004018080602001828103825260308152602001806144ce6030913960400191505060405180910390fd5b60608351604051908082528060200260200182016040528015611fb25781602001602082028038833980820191505090505b50905060008090505b84518110156120f757600073ffffffffffffffffffffffffffffffffffffffff16858281518110611fe857fe5b602002602001015173ffffffffffffffffffffffffffffffffffffffff16141561205d576040517f08c379a000000000000000000000000000000000000000000000000000000000815260040180806020018281038252603481526020018061457a6034913960400191505060405180910390fd5b6001600085838151811061206d57fe5b60200260200101518152602001908152602001600020600086838151811061209157fe5b602002602001015173ffffffffffffffffffffffffffffffffffffffff1673ffffffffffffffffffffffffffffffffffffffff168152602001908152602001600020548282815181106120e057fe5b602002602001018181525050806001019050611fbb565b508091505092915050565b606061210d82613479565b61217f576040517f08c379a000000000000000000000000000000000000000000000000000000000815260040180806020018281038252601f8152602001807f655468616c65723a20746f6b656e496420646f6573206e6f742065786973740081525060200191505060405180910390fd5b6060600460008481526020019081526020016000206003018054600181600116156101000203166002900480601f01602080910402602001604051908101604052809291908181526020018280546001816001161561010002031660029004801561222b5780601f106122005761010080835404028352916020019161222b565b820191906000526020600020905b81548152906001019060200180831161220e57829003601f168201915b5050505050905080915050919050565b6000600360009054906101000a900473ffffffffffffffffffffffffffffffffffffffff1673ffffffffffffffffffffffffffffffffffffffff163373ffffffffffffffffffffffffffffffffffffffff1614612300576040517f08c379a00000000000000000000000000000000000000000000000000000000081526004018080602001828103825260168152602001807f596f7520617265206e6f7420746865206f776e65722e0000000000000000000081525060200191505060405180910390fd5b61232883600460008581526020019081526020016000206004016136a690919063ffffffff16565b905092915050565b600360009054906101000a900473ffffffffffffffffffffffffffffffffffffffff1681565b6000600360009054906101000a900473ffffffffffffffffffffffffffffffffffffffff1673ffffffffffffffffffffffffffffffffffffffff163373ffffffffffffffffffffffffffffffffffffffff1614905090565b60006123d833600460008581526020019081526020016000206004016136a690919063ffffffff16565b61242d576040517f08c379a00000000000000000000000000000000000000000000000000000000081526004018080602001828103825260308152602001806143c96030913960400191505060405180910390fd5b6124373383613399565b9050919050565b8173ffffffffffffffffffffffffffffffffffffffff163373ffffffffffffffffffffffffffffffffffffffff1614156124c3576040517f08c379a000000000000000000000000000000000000000000000000000000000815260040180806020018281038252602c8152602001806144a2602c913960400191505060405180910390fd5b80600260003373ffffffffffffffffffffffffffffffffffffffff1673ffffffffffffffffffffffffffffffffffffffff16815260200190815260200160002060008473ffffffffffffffffffffffffffffffffffffffff1673ffffffffffffffffffffffffffffffffffffffff16815260200190815260200160002060006101000a81548160ff0219169083151502179055508173ffffffffffffffffffffffffffffffffffffffff163373ffffffffffffffffffffffffffffffffffffffff167f17307eab39ab6107e8899845ad3d59bd9653f200f220920489ca2b5937696c3183604051808215151515815260200191505060405180910390a35050565b600360009054906101000a900473ffffffffffffffffffffffffffffffffffffffff1673ffffffffffffffffffffffffffffffffffffffff163373ffffffffffffffffffffffffffffffffffffffff1614612687576040517f08c379a00000000000000000000000000000000000000000000000000000000081526004018080602001828103825260168152602001807f596f7520617265206e6f7420746865206f776e65722e0000000000000000000081525060200191505060405180910390fd5b61269082613479565b612702576040517f08c379a000000000000000000000000000000000000000000000000000000000815260040180806020018281038252601f8152602001807f655468616c65723a20746f6b656e496420646f6573206e6f742065786973740081525060200191505060405180910390fd5b6000151561270f83612a2a565b151514612767576040517f08c379a000000000000000000000000000000000000000000000000000000000815260040180806020018281038252603281526020018061476d6032913960400191505060405180910390fd5b612772338383613b9b565b5050565b600360009054906101000a900473ffffffffffffffffffffffffffffffffffffffff1673ffffffffffffffffffffffffffffffffffffffff163373ffffffffffffffffffffffffffffffffffffffff1614612839576040517f08c379a00000000000000000000000000000000000000000000000000000000081526004018080602001828103825260168152602001807f596f7520617265206e6f7420746865206f776e65722e0000000000000000000081525060200191505060405180910390fd5b61284281613479565b6128b4576040517f08c379a000000000000000000000000000000000000000000000000000000000815260040180806020018281038252601f8152602001807f655468616c65723a20746f6b656e496420646f6573206e6f742065786973740081525060200191505060405180910390fd5b6128dc8260046000848152602001908152602001600020600401613d7c90919063ffffffff16565b3073ffffffffffffffffffffffffffffffffffffffff1663a22cb4658360016040518363ffffffff1660e01b8152600401808373ffffffffffffffffffffffffffffffffffffffff1673ffffffffffffffffffffffffffffffffffffffff1681526020018215151515815260200192505050600060405180830381600087803b15801561296857600080fd5b505af115801561297c573d6000803e3d6000fd5b505050508173ffffffffffffffffffffffffffffffffffffffff167f773a887f6943a734339f8148a1b9dbbea20eb1355aa0d1afe75f84fca5eacb09826040518082815260200191505060405180910390a25050565b60606005805480602002602001604051908101604052809291908181526020018280548015612a2057602002820191906000526020600020905b815481526020019060010190808311612a0c575b5050505050905090565b6000612a3582613479565b612aa7576040517f08c379a000000000000000000000000000000000000000000000000000000000815260040180806020018281038252601f8152602001807f655468616c65723a20746f6b656e496420646f6573206e6f742065786973740081525060200191505060405180910390fd5b6004600083815260200190815260200160002060020160019054906101000a900460ff169050919050565b600360009054906101000a900473ffffffffffffffffffffffffffffffffffffffff1673ffffffffffffffffffffffffffffffffffffffff163373ffffffffffffffffffffffffffffffffffffffff1614612b95576040517f08c379a00000000000000000000000000000000000000000000000000000000081526004018080602001828103825260168152602001807f596f7520617265206e6f7420746865206f776e65722e0000000000000000000081525060200191505060405180910390fd5b612b9e81613479565b612c10576040517f08c379a000000000000000000000000000000000000000000000000000000000815260040180806020018281038252601f8152602001807f655468616c65723a20746f6b656e496420646f6573206e6f742065786973740081525060200191505060405180910390fd5b612c1a8282613e57565b612c6f576040517f08c379a000000000000000000000000000000000000000000000000000000000815260040180806020018281038252604e81526020018061471f604e913960600191505060405180910390fd5b612c978260046000848152602001908152602001600020600401613ed090919063ffffffff16565b612ca082613f8d565b15612d4a573073ffffffffffffffffffffffffffffffffffffffff1663a22cb4658360006040518363ffffffff1660e01b8152600401808373ffffffffffffffffffffffffffffffffffffffff1673ffffffffffffffffffffffffffffffffffffffff1681526020018215151515815260200192505050600060405180830381600087803b158015612d3157600080fd5b505af1158015612d45573d6000803e3d6000fd5b505050505b8173ffffffffffffffffffffffffffffffffffffffff167f7887c48685580868ec5f4fcc325b43a35868de9c2b03ce550abda8f94eda3eff826040518082815260200191505060405180910390a25050565b6060612da782613479565b612e19576040517f08c379a000000000000000000000000000000000000000000000000000000000815260040180806020018281038252601f8152602001807f655468616c65723a20746f6b656e496420646f6573206e6f742065786973740081525060200191505060405180910390fd5b6060600460008481526020019081526020016000206001018054600181600116156101000203166002900480601f016020809104026020016040519081016040528092919081815260200182805460018160011615610100020316600290048015612ec55780601f10612e9a57610100808354040283529160200191612ec5565b820191906000526020600020905b815481529060010190602001808311612ea857829003601f168201915b5050505050905080915050919050565b6000600260008473ffffffffffffffffffffffffffffffffffffffff1673ffffffffffffffffffffffffffffffffffffffff16815260200190815260200160002060008373ffffffffffffffffffffffffffffffffffffffff1673ffffffffffffffffffffffffffffffffffffffff16815260200190815260200160002060009054906101000a900460ff16905092915050565b600073ffffffffffffffffffffffffffffffffffffffff168573ffffffffffffffffffffffffffffffffffffffff161415612fef576040517f08c379a00000000000000000000000000000000000000000000000000000000081526004018080602001828103825260288152602001806143f96028913960400191505060405180910390fd5b3373ffffffffffffffffffffffffffffffffffffffff168673ffffffffffffffffffffffffffffffffffffffff1614806130365750600115156130323388612ed5565b1515145b61308b576040517f08c379a00000000000000000000000000000000000000000000000000000000081526004018080602001828103825260378152602001806146596037913960400191505060405180910390fd5b613108836040518060600160405280602a81526020016145ae602a91396001600088815260200190815260200160002060008a73ffffffffffffffffffffffffffffffffffffffff1673ffffffffffffffffffffffffffffffffffffffff168152602001908152602001600020546137849092919063ffffffff16565b6001600086815260200190815260200160002060008873ffffffffffffffffffffffffffffffffffffffff1673ffffffffffffffffffffffffffffffffffffffff168152602001908152602001600020819055506131bf836001600087815260200190815260200160002060008873ffffffffffffffffffffffffffffffffffffffff1673ffffffffffffffffffffffffffffffffffffffff1681526020019081526020016000205461384490919063ffffffff16565b6001600086815260200190815260200160002060008773ffffffffffffffffffffffffffffffffffffffff1673ffffffffffffffffffffffffffffffffffffffff168152602001908152602001600020819055508473ffffffffffffffffffffffffffffffffffffffff168673ffffffffffffffffffffffffffffffffffffffff163373ffffffffffffffffffffffffffffffffffffffff167fc3d58168c5ae7397731d063d5bbf3d657854427343f4c083240f7aacaa2d0f628787604051808381526020018281526020019250505060405180910390a46132e9338787878787878080601f016020809104026020016040519081016040528093929190818152602001838380828437600081840152601f19601f8201169050808301925050505050505061400f565b505050505050565b60006132fc82613479565b61336e576040517f08c379a000000000000000000000000000000000000000000000000000000000815260040180806020018281038252601f8152602001807f655468616c65723a20746f6b656e496420646f6573206e6f742065786973740081525060200191505060405180910390fd5b6004600083815260200190815260200160002060020160009054906101000a900460ff169050919050565b60008073ffffffffffffffffffffffffffffffffffffffff168373ffffffffffffffffffffffffffffffffffffffff161415613420576040517f08c379a000000000000000000000000000000000000000000000000000000000815260040180806020018281038252602b81526020018061439e602b913960400191505060405180910390fd5b6001600083815260200190815260200160002060008473ffffffffffffffffffffffffffffffffffffffff1673ffffffffffffffffffffffffffffffffffffffff16815260200190815260200160002054905092915050565b600080600090505b6005805490508110156134c457826005828154811061349c57fe5b906000526020600020015414156134b75760019150506134ca565b8080600101915050613481565b60009150505b919050565b600073ffffffffffffffffffffffffffffffffffffffff168473ffffffffffffffffffffffffffffffffffffffff161415613555576040517f08c379a000000000000000000000000000000000000000000000000000000000815260040180806020018281038252602181526020018061479f6021913960400191505060405180910390fd5b6135b8826001600086815260200190815260200160002060008773ffffffffffffffffffffffffffffffffffffffff1673ffffffffffffffffffffffffffffffffffffffff1681526020019081526020016000205461384490919063ffffffff16565b6001600085815260200190815260200160002060008673ffffffffffffffffffffffffffffffffffffffff1673ffffffffffffffffffffffffffffffffffffffff168152602001908152602001600020819055508373ffffffffffffffffffffffffffffffffffffffff16600073ffffffffffffffffffffffffffffffffffffffff163373ffffffffffffffffffffffffffffffffffffffff167fc3d58168c5ae7397731d063d5bbf3d657854427343f4c083240f7aacaa2d0f628686604051808381526020018281526020019250505060405180910390a46136a03360008686868661400f565b50505050565b60008073ffffffffffffffffffffffffffffffffffffffff168273ffffffffffffffffffffffffffffffffffffffff16141561372d576040517f08c379a00000000000000000000000000000000000000000000000000000000081526004018080602001828103825260228152602001806146056022913960400191505060405180910390fd5b8260000160008373ffffffffffffffffffffffffffffffffffffffff1673ffffffffffffffffffffffffffffffffffffffff16815260200190815260200160002060009054906101000a900460ff16905092915050565b6000838311158290613831576040517f08c379a00000000000000000000000000000000000000000000000000000000081526004018080602001828103825283818151815260200191508051906020019080838360005b838110156137f65780820151818401526020810190506137db565b50505050905090810190601f1680156138235780820380516001836020036101000a031916815260200191505b509250505060405180910390fd5b5060008385039050809150509392505050565b6000808284019050838110156138c2576040517f08c379a000000000000000000000000000000000000000000000000000000000815260040180806020018281038252601b8152602001807f536166654d6174683a206164646974696f6e206f766572666c6f77000000000081525060200191505060405180910390fd5b8091505092915050565b6138eb8473ffffffffffffffffffffffffffffffffffffffff1661425c565b15613b93578373ffffffffffffffffffffffffffffffffffffffff1663bc197c81905060e01b7bffffffffffffffffffffffffffffffffffffffffffffffffffffffff19168473ffffffffffffffffffffffffffffffffffffffff1663bc197c8188888787876040518663ffffffff1660e01b8152600401808673ffffffffffffffffffffffffffffffffffffffff1673ffffffffffffffffffffffffffffffffffffffff1681526020018573ffffffffffffffffffffffffffffffffffffffff1673ffffffffffffffffffffffffffffffffffffffff168152602001806020018060200180602001848103845287818151815260200191508051906020019060200280838360005b83811015613a0f5780820151818401526020810190506139f4565b50505050905001848103835286818151815260200191508051906020019060200280838360005b83811015613a51578082015181840152602081019050613a36565b50505050905001848103825285818151815260200191508051906020019080838360005b83811015613a90578082015181840152602081019050613a75565b50505050905090810190601f168015613abd5780820380516001836020036101000a031916815260200191505b5098505050505050505050602060405180830381600087803b158015613ae257600080fd5b505af1158015613af6573d6000803e3d6000fd5b505050506040513d6020811015613b0c57600080fd5b81019080805190602001909291905050507bffffffffffffffffffffffffffffffffffffffffffffffffffffffff191614613b92576040517f08c379a00000000000000000000000000000000000000000000000000000000081526004018080602001828103825260368152602001806144fe6036913960400191505060405180910390fd5b5b505050505050565b600073ffffffffffffffffffffffffffffffffffffffff168373ffffffffffffffffffffffffffffffffffffffff161415613c21576040517f08c379a00000000000000000000000000000000000000000000000000000000081526004018080602001828103825260328152602001806146276032913960400191505060405180910390fd5b613c9e816040518060600160405280602d81526020016145d8602d91396001600086815260200190815260200160002060008773ffffffffffffffffffffffffffffffffffffffff1673ffffffffffffffffffffffffffffffffffffffff168152602001908152602001600020546137849092919063ffffffff16565b6001600084815260200190815260200160002060008573ffffffffffffffffffffffffffffffffffffffff1673ffffffffffffffffffffffffffffffffffffffff16815260200190815260200160002081905550600073ffffffffffffffffffffffffffffffffffffffff168373ffffffffffffffffffffffffffffffffffffffff163373ffffffffffffffffffffffffffffffffffffffff167fc3d58168c5ae7397731d063d5bbf3d657854427343f4c083240f7aacaa2d0f628585604051808381526020018281526020019250505060405180910390a4505050565b613d8682826136a6565b15613df9576040517f08c379a000000000000000000000000000000000000000000000000000000000815260040180806020018281038252601f8152602001807f526f6c65733a206163636f756e7420616c72656164792068617320726f6c650081525060200191505060405180910390fd5b60018260000160008373ffffffffffffffffffffffffffffffffffffffff1673ffffffffffffffffffffffffffffffffffffffff16815260200190815260200160002060006101000a81548160ff0219169083151502179055505050565b600080600090505b600580549050811015613ec4578260058281548110613e7a57fe5b90600052602060002001541415613eb7576000613eae8560058481548110613e9e57fe5b9060005260206000200154613399565b14915050613eca565b8080600101915050613e5f565b60009150505b92915050565b613eda82826136a6565b613f2f576040517f08c379a00000000000000000000000000000000000000000000000000000000081526004018080602001828103825260218152602001806145596021913960400191505060405180910390fd5b60008260000160008373ffffffffffffffffffffffffffffffffffffffff1673ffffffffffffffffffffffffffffffffffffffff16815260200190815260200160002060006101000a81548160ff0219169083151502179055505050565b600080600090505b60058054905081101561400457600060058281548110613fb157fe5b90600052602060002001549050613fe684600460008481526020019081526020016000206004016136a690919063ffffffff16565b15613ff65760009250505061400a565b508080600101915050613f95565b60019150505b919050565b61402e8473ffffffffffffffffffffffffffffffffffffffff1661425c565b15614254578373ffffffffffffffffffffffffffffffffffffffff1663f23a6e61905060e01b7bffffffffffffffffffffffffffffffffffffffffffffffffffffffff19168473ffffffffffffffffffffffffffffffffffffffff1663f23a6e6188888787876040518663ffffffff1660e01b8152600401808673ffffffffffffffffffffffffffffffffffffffff1673ffffffffffffffffffffffffffffffffffffffff1681526020018573ffffffffffffffffffffffffffffffffffffffff1673ffffffffffffffffffffffffffffffffffffffff16815260200184815260200183815260200180602001828103825283818151815260200191508051906020019080838360005b83811015614153578082015181840152602081019050614138565b50505050905090810190601f1680156141805780820380516001836020036101000a031916815260200191505b509650505050505050602060405180830381600087803b1580156141a357600080fd5b505af11580156141b7573d6000803e3d6000fd5b505050506040513d60208110156141cd57600080fd5b81019080805190602001909291905050507bffffffffffffffffffffffffffffffffffffffffffffffffffffffff191614614253576040517f08c379a00000000000000000000000000000000000000000000000000000000081526004018080602001828103825260318152602001806147fd6031913960400191505060405180910390fd5b5b505050505050565b60008060007fc5d2460186f7233c927e7db2dcc703c0e500b653ca82273b7bfad8045d85a47060001b9050833f915080821415801561429e57506000801b8214155b92505050919050565b828054600181600116156101000203166002900490600052602060002090601f016020900481019282601f106142e857803560ff1916838001178555614316565b82800160010185558215614316579182015b828111156143155782358255916020019190600101906142fa565b5b5090506143239190614327565b5090565b61434991905b8082111561434557600081600090555060010161432d565b5090565b9056fe655468616c65723a20746f6b656e20616c726561647920697320696e20706175736564207374617465655468616c65723a2073656e646572206d7573742062652072656769737465726564206669727374455243313135353a2062616c616e636520717565727920666f7220746865207a65726f2061646472657373655468616c65723a206465616c6572206163636f756e74206d7573742062652072656769737465726564206669727374455243313135353a207461726765742061646472657373206d757374206265206e6f6e2d7a65726f655468616c65723a20746f6b656e496420697320616c726561647920646566696e656420655468616c65723a20546f6b656e206973207061757365642e205472616e73666572206973206e6f74207065726d6974746564655468616c65723a207265636569766572206d7573742062652072656769737465726564206669727374455243313135353a2063616e6e6f742073657420617070726f76616c2073746174757320666f722073656c66455243313135353a206163636f756e747320616e6420494473206d75737420686176652073616d65206c656e67746873455243313135353a20676f7420756e6b6e6f776e2076616c75652066726f6d206f6e4552433131353542617463685265636569766564655468616c65723a20746f6b656e206973206e6f7420696e20706175736564207374617465526f6c65733a206163636f756e7420646f6573206e6f74206861766520726f6c65455243313135353a20736f6d65206164647265737320696e2062617463682062616c616e6365207175657279206973207a65726f455243313135353a20696e73756666696369656e742062616c616e636520666f72207472616e73666572455243313135353a20617474656d7074696e6720746f206275726e206d6f7265207468616e2062616c616e6365526f6c65733a206163636f756e7420697320746865207a65726f2061646472657373455243313135353a20617474656d7074696e6720746f206275726e20746f6b656e73206f6e207a65726f206163636f756e74455243313135353a206e656564206f70657261746f7220617070726f76616c20666f7220337264207061727479207472616e7366657273655468616c65723a2073656e64657220616e642072656365697665722063616e6e6f74206265207468652073616d65655468616c65723a20546f6b656e206973207061757365642e204d696e74696e67206973206e6f74207065726d6974746564455243313135353a2049447320616e642076616c756573206d75737420686176652073616d65206c656e67746873655468616c65723a20756e726567697374726174696f6e207065726d6974746564206f6e6c79207768656e207468657265206973206e6f2062616c616e636520696e20746865206163636f756e74655468616c65723a20546f6b656e206973207061757365642e204275726e696e67206973206e6f74207065726d6974746564455243313135353a206d696e7420746f20746865207a65726f2061646472657373455243313135353a20696e73756666696369656e742062616c616e6365206f6620736f6d6520746f6b656e207479706520666f72207472616e73666572455243313135353a20676f7420756e6b6e6f776e2076616c75652066726f6d206f6e455243313135355265636569766564a265627a7a72315820e165f16a726cb84e1468562479a57a8598992b5e64ef84c73886fb64e4b9689764736f6c63430005100032",
  "source": "pragma solidity >=0.4.21 <0.7.0;\r\n\r\nimport \"openzeppelin-solidity/contracts/access/Roles.sol\";\r\nimport \"openzeppelin-solidity/contracts/token/ERC1155/ERC1155.sol\";\r\n\r\ncontract eThaler is ERC1155 {\r\n   address public owner;     // owner of this contract (Central Bank)\r\n   using Roles for Roles.Role; // We intend to use the Roles library\r\n\r\n   struct TokenDetails {\r\n      uint256 id;   // token Id   (must be unique)\r\n      string name;   // simple name of the token (it may not be unique)\r\n      uint8 decimals;   // number of decimals\r\n      bool   isPaused;  // can be paused (true) and resumed (false) by owner of this contract\r\n      string TTF_url;   // url to the TTF definition of this token\r\n      Roles.Role   registeredDealers; // Everyone must register first to initiate token transfers\r\n   }\r\n\r\n   mapping (uint256 => TokenDetails) private _tokenDetails;    // tokenId to tokenDefinition\r\n   uint256[] private _tokenIds;    // array of tokens\r\n\r\n   event TokenDefined( uint256 tokenId, string tokenName, string ttfURL );\r\n   event RegisteredDealer(address indexed account, uint256 tokenId );\r\n   event UnregisteredDealer(address indexed account, uint256 tokenId );\r\n\r\n   constructor( ) public {\r\n      owner = msg.sender;\r\n   }\r\n\r\n   modifier onlyOwner() {\r\n      require( msg.sender == owner, \"You are not the owner.\" );\r\n      _;\r\n   }\r\n\r\n    /**\r\n     * @dev returns true if the tokenId already exists (already defined by contract owner)\r\n    */\r\n   function tokenExists( uint256 tokenId ) private view returns( bool ) {\r\n      uint256 idx;\r\n      for( idx = 0; idx < _tokenIds.length; idx++ ) {\r\n         if( _tokenIds[idx] == tokenId )\r\n            return true;\r\n      }\r\n      return false; // no matching tokenId\r\n   }\r\n\r\n   /** \r\n    * @dev returns ids of all tokens\r\n    */\r\n   function getAllTokenIds( ) public view returns ( uint256[] memory ) {\r\n      return _tokenIds;\r\n   }\r\n\r\n    /**\r\n     * @dev External function to define a new token (tokenId should be unique)\r\n    * Only contract owner can call this function\r\n     * @param tokenId of the new token \r\n     * @param name of the token \r\n     * @param numDecimals decimal precision for the token\r\n    * @param ttfUrl: external URL for this token's Token Taxononmy Framework (TTF) specification \r\n     */\r\n   function addNewTokenDefinition( uint256 tokenId, string calldata name, uint8 numDecimals, string calldata ttfUrl ) external onlyOwner {\r\n      require( ( tokenExists( tokenId ) == false ), \"eThaler: tokenId is already defined \");\r\n      TokenDetails storage tokenInfo = _tokenDetails[ tokenId ];\r\n      tokenInfo.id = tokenId;\r\n      tokenInfo.name = name;\r\n      tokenInfo.decimals = numDecimals;\r\n      tokenInfo.TTF_url = ttfUrl;\r\n      tokenInfo.isPaused = false;   // by default\r\n\r\n      _tokenIds.push( tokenId );   // add to array of tokens\r\n       emit TokenDefined( tokenId, name, ttfUrl );\r\n   }\r\n\r\n   /**\r\n    * @dev External function to mint an amount of a token for the given tokenId\r\n    * Only contract owner can call this function\r\n    * This function can be called any number of times to add to the current total for a given tokenId\r\n    * @param tokenId of the token to mint\r\n    * @param amount of the token to mint For ex: if one needs 100 full tokens, the caller \r\n    * should set the amount as (100 * 10^4) = 1,000,000 (assuming the token's decimals is set to 4)\r\n    * @param callbackData: if smartcontract calling this function\r\n    */\r\n   function mint( uint256 tokenId, uint256 amount, bytes calldata callbackData ) external onlyOwner {\r\n      require( tokenExists( tokenId ), \"eThaler: tokenId does not exist\");\r\n      require( ( isPaused( tokenId ) == false ), \"eThaler: Token is paused. Minting is not permitted\" );\r\n      super._mint( msg.sender, tokenId, amount, callbackData  );\r\n      // minter = address( msg.sender );    or minter = msg.sender;\r\n   }\r\n\r\n   /**\r\n    * @dev External function to burn an amount of a token for the given tokenId\r\n    * Only contract owner can call this function\r\n    * @param tokenId of the token to be burnt\r\n    * @param amount of the token to be burnt\r\n    */\r\n   function burn( uint256 tokenId, uint256 amount ) external onlyOwner {\r\n      require( tokenExists( tokenId ), \"eThaler: tokenId does not exist\");\r\n      require( ( isPaused( tokenId ) == false ), \"eThaler: Token is paused. Burning is not permitted\" );\r\n      super._burn( msg.sender, tokenId, amount );\r\n   }\r\n\r\n   /** \r\n    * @dev returns if the caller is the owner\r\n    */\r\n   function isOwner( ) external view returns( bool ) {\r\n      return( msg.sender == owner ); \r\n   }\r\n\r\n   /** \r\n    * @dev returns the token decimals for the given token\r\n   * @param tokenId: token to check \r\n    */\r\n   function getDecimals( uint256 tokenId ) external view returns( uint8 ) {\r\n      require( tokenExists( tokenId ), \"eThaler: tokenId does not exist\");\r\n      return( _tokenDetails[tokenId].decimals );\r\n   }\r\n\r\n   /** \r\n    * @dev returns the token name for the given token\r\n   * @param tokenId: token to check \r\n    */\r\n   function getTokenName( uint256 tokenId ) external view returns( string memory ) {\r\n      require( tokenExists( tokenId ), \"eThaler: tokenId does not exist\");\r\n      string memory tokenName = _tokenDetails[tokenId].name;\r\n      return tokenName;\r\n   }\r\n\r\n   /** \r\n    * @dev returns the TTF (Token Taxonomy Framework) token specs URL for the given token\r\n   * @param tokenId: token to check \r\n    */\r\n   function getTTF_URL( uint256 tokenId ) external view returns( string memory ) {\r\n      require( tokenExists( tokenId ), \"eThaler: tokenId does not exist\");\r\n      string memory ttfUrl = _tokenDetails[tokenId].TTF_url;\r\n      return( ttfUrl );\r\n   }\r\n\r\n   /** \r\n    * @dev checks if the token is in pause state \r\n    * @param tokenId: token to check \r\n    */\r\n   function isPaused( uint256 tokenId ) public view returns( bool ) {\r\n      require( tokenExists( tokenId ), \"eThaler: tokenId does not exist\");\r\n      return( _tokenDetails[tokenId].isPaused );\r\n   }\r\n\r\n   /** \r\n    * @dev sets the token to the pause state to disable transfers, mints and burns\r\n    * @param tokenId: token to set in pause state\r\n    *  Only contract owner can pause or resume tokens\r\n    */\r\n   function pause( uint256 tokenId ) external onlyOwner {\r\n      require( tokenExists( tokenId ), \"eThaler: tokenId does not exist\");\r\n      require( (_tokenDetails[tokenId].isPaused == false), \"eThaler: token already is in paused state\");\r\n      _tokenDetails[tokenId].isPaused = true;\r\n   }\r\n\r\n   /** \r\n    * @dev removes the token from the pause state to enable transfers, mints and burns\r\n    * @param tokenId: token to remove the pause state\r\n    *  Only contract owner can pause or resume tokens\r\n    */\r\n   function resume( uint256 tokenId ) external onlyOwner {\r\n      require( tokenExists( tokenId ), \"eThaler: tokenId does not exist\");\r\n      require( _tokenDetails[tokenId].isPaused, \"eThaler: token is not in paused state\");\r\n      _tokenDetails[tokenId].isPaused = false;\r\n   }\r\n\r\n   /** \r\n    * @dev returns true if Dealer's account is registered for the given token\r\n    * @param account: address of the dealer \r\n    * @param tokenId: token for registration check\r\n    * Only contract owner can check for dealer registration\r\n    */\r\n   function isDealerRegistered( address account, uint256 tokenId ) external onlyOwner view returns( bool ) {\r\n      return _tokenDetails[tokenId].registeredDealers.has( account );\r\n   }\r\n\r\n   /** \r\n    * @dev Only CBD (Owner or address(0)) can register Dealers\r\n    * @param account: address of the dealer to register\r\n    * @param tokenId: token for registration\r\n    * Only registered Dealers can transfer tokens \r\n    */\r\n   function registerDealer( address account, uint256 tokenId ) external onlyOwner {\r\n      require( tokenExists( tokenId ), \"eThaler: tokenId does not exist\");\r\n      _tokenDetails[tokenId].registeredDealers.add( account );\r\n      this.setApprovalForAll( account, true );  // enable this contract as approved in ERC1155 contract for xacting with the owner address \r\n      emit RegisteredDealer( account, tokenId );\r\n   }\r\n\r\n   /** \r\n    * @dev returns true if all the token balances for the account are 0\r\n    * @param account: address of the account to which all token balances to be checked\r\n    */\r\n   function checkAllBalancesAreZero( address account ) private view returns( bool ) {\r\n      uint256 idx;\r\n      for( idx = 0; idx < _tokenIds.length; idx++ ) {\r\n         if( super.balanceOf( account, _tokenIds[idx] ) != 0 )\r\n            return false;\r\n      }\r\n      return true; // all token balances are 0 \r\n   }\r\n\r\n   /** \r\n    * @dev returns true if the dealer is unregistered for all tokens\r\n    * @param account: address of the dealer account \r\n    */\r\n   function checkUnregisteredForAllTokens( address account ) private view returns( bool ) {\r\n      uint256 idx;\r\n      for( idx = 0; idx < _tokenIds.length; idx++ ) {\r\n         uint256 tokenId = _tokenIds[idx];\r\n         if( _tokenDetails[tokenId].registeredDealers.has( account )  )\r\n            return false;\r\n      }\r\n      return true; // unregistered for all tokens\r\n   }\r\n\r\n   /** \r\n    * @dev returns true if the token balance for the account & tolem is 0\r\n    * @param account: address of the account for which token balance to be checked\r\n    * @param tokenId: tokenId for which balance to be checked\r\n    */\r\n   function checkBalance( address account, uint256 tokenId ) private view returns( bool ) {\r\n      uint256 idx;\r\n      for( idx = 0; idx < _tokenIds.length; idx++ ) {\r\n         if( _tokenIds[idx] == tokenId ) {\r\n            return ( super.balanceOf( account, _tokenIds[idx] ) == 0 );\r\n         }\r\n      }\r\n      return false; // no matching token: token balance is 0 by defailt\r\n   }\r\n\r\n   /** \r\n    * @dev Only CBD (Owner or address(0)) can unregister Dealers\r\n    * @param account: address to be unregistered\r\n    * @param tokenId: tokenId for the transfer\r\n    *  Only accounts with 0 balance can be unregistered \r\n    */\r\n   function unregisterDealer( address account, uint256 tokenId ) external onlyOwner {\r\n      require( tokenExists( tokenId ), \"eThaler: tokenId does not exist\");\r\n      // before unregistering a dealer, ensure that the dealer has no balances for the token\r\n      require( checkBalance( account, tokenId ), \"eThaler: unregistration permitted only when there is no balance in the account\");\r\n      _tokenDetails[tokenId].registeredDealers.remove( account );\r\n      if( checkUnregisteredForAllTokens( account ) )\r\n         this.setApprovalForAll( account, false );  // disable this contract for approval in ERC1155 contract\r\n       emit UnregisteredDealer( account, tokenId );\r\n   }\r\n\r\n   /** \r\n    * @dev transfers the value to the 'to' account for tokenId\r\n    * @param to: recipient address \r\n    * @param tokenId: tokenId for the transfer\r\n    * @param value: amount of transfer\r\n    * Transfer can start only when both parties are registered and the token is not paused\r\n    */\r\n   function transfer( address to, uint256 tokenId, uint256 value) external {\r\n      require( tokenExists( tokenId ), \"eThaler: tokenId does not exist\");\r\n      require( ( isPaused( tokenId ) == false ), \"eThaler: Token is paused. Transfer is not permitted\" );\r\n      require( _tokenDetails[tokenId].registeredDealers.has( msg.sender ), \"eThaler: sender must be registered first\" );\r\n      require( _tokenDetails[tokenId].registeredDealers.has( to ), \"eThaler: receiver must be registered first\" );\r\n      require( ( msg.sender != to), \"eThaler: sender and receiver cannot be the same\" );\r\n      this.safeTransferFrom( msg.sender, to, tokenId, value, '0x00' );\r\n    }\r\n\r\n   /** \r\n    * @dev returns the balance of the account for the given token\r\n    * @param account: address for which balance to be checked\r\n    * @param tokenId: tokenId for the balance query\r\n    * Balance will be provided only for registered account\r\n    */\r\n   function balanceOf( address account, uint256 tokenId ) public view onlyOwner returns (uint256) {\r\n       return super.balanceOf( account, tokenId );\r\n   }\r\n\r\n   function balanceOf( uint256 tokenId ) external view returns (uint256) {\r\n      // check if the dealer is registered for the token first\r\n      require( _tokenDetails[tokenId].registeredDealers.has( msg.sender ), \r\n         \"eThaler: dealer account must be registered first\" );\r\n      return super.balanceOf( msg.sender, tokenId );\r\n   }\r\n\r\n}\r\n\r\n",
  "sourcePath": "E:\\mani\\ethereum\\eThaler\\contracts\\eThaler.sol",
  "compiler": {
    "name": "solc",
    "version": "0.5.16+commit.9c3226ce.Emscripten.clang"
  },
  "schemaVersion": "3.0.23",
  "updatedAt": "2020-04-29T16:02:34.304Z",
  "networkType": "ethereum",
  "devdoc": {
    "methods": {
      "addNewTokenDefinition(uint256,string,uint8,string)": {
        "details": "External function to define a new token (tokenId should be unique) Only contract owner can call this function",
        "params": {
          "name": "of the token ",
          "numDecimals": "decimal precision for the token",
          "tokenId": "of the new token ",
          "ttfUrl": ": external URL for this token's Token Taxononmy Framework (TTF) specification "
        }
      },
      "balanceOf(address,uint256)": {
        "details": "returns the balance of the account for the given token",
        "params": {
          "account": ": address for which balance to be checked",
          "tokenId": ": tokenId for the balance query Balance will be provided only for registered account"
        }
      },
      "balanceOfBatch(address[],uint256[])": {
        "details": "Get the balance of multiple account/token pairs. If any of the query accounts is the zero account, this query will revert.",
        "params": {
          "accounts": "The addresses of the token holders",
          "ids": "IDs of the tokens"
        },
        "return": "Balances for each account and token id pair"
      },
      "burn(uint256,uint256)": {
        "details": "External function to burn an amount of a token for the given tokenId Only contract owner can call this function",
        "params": {
          "amount": "of the token to be burnt",
          "tokenId": "of the token to be burnt"
        }
      },
      "getAllTokenIds()": {
        "details": "returns ids of all tokens"
      },
      "getDecimals(uint256)": {
        "details": "returns the token decimals for the given token",
        "params": {
          "tokenId": ": token to check "
        }
      },
      "getTTF_URL(uint256)": {
        "details": "returns the TTF (Token Taxonomy Framework) token specs URL for the given token",
        "params": {
          "tokenId": ": token to check "
        }
      },
      "getTokenName(uint256)": {
        "details": "returns the token name for the given token",
        "params": {
          "tokenId": ": token to check "
        }
      },
      "isApprovedForAll(address,address)": {
        "params": {
          "account": "The account of the Tokens",
          "operator": "Address of authorized operator"
        },
        "return": "True if the operator is approved, false if not"
      },
      "isDealerRegistered(address,uint256)": {
        "details": "returns true if Dealer's account is registered for the given token",
        "params": {
          "account": ": address of the dealer ",
          "tokenId": ": token for registration check Only contract owner can check for dealer registration"
        }
      },
      "isOwner()": {
        "details": "returns if the caller is the owner"
      },
      "isPaused(uint256)": {
        "details": "checks if the token is in pause state ",
        "params": {
          "tokenId": ": token to check "
        }
      },
      "mint(uint256,uint256,bytes)": {
        "details": "External function to mint an amount of a token for the given tokenId Only contract owner can call this function This function can be called any number of times to add to the current total for a given tokenId",
        "params": {
          "amount": "of the token to mint For ex: if one needs 100 full tokens, the caller  should set the amount as (100 * 10^4) = 1,000,000 (assuming the token's decimals is set to 4)",
          "callbackData": ": if smartcontract calling this function",
          "tokenId": "of the token to mint"
        }
      },
      "pause(uint256)": {
        "details": "sets the token to the pause state to disable transfers, mints and burns",
        "params": {
          "tokenId": ": token to set in pause state Only contract owner can pause or resume tokens"
        }
      },
      "registerDealer(address,uint256)": {
        "details": "Only CBD (Owner or address(0)) can register Dealers",
        "params": {
          "account": ": address of the dealer to register",
          "tokenId": ": token for registration Only registered Dealers can transfer tokens "
        }
      },
      "resume(uint256)": {
        "details": "removes the token from the pause state to enable transfers, mints and burns",
        "params": {
          "tokenId": ": token to remove the pause state Only contract owner can pause or resume tokens"
        }
      },
      "safeBatchTransferFrom(address,address,uint256[],uint256[],bytes)": {
        "details": "Transfers `values` amount(s) of `ids` from the `from` address to the `to` address specified. Caller must be approved to manage the tokens being transferred out of the `from` account. If `to` is a smart contract, will call `onERC1155BatchReceived` on `to` and act appropriately.",
        "params": {
          "data": "Data forwarded to `onERC1155Received` if `to` is a contract receiver",
          "from": "Source address",
          "ids": "IDs of each token type",
          "to": "Target address",
          "values": "Transfer amounts per token type"
        }
      },
      "safeTransferFrom(address,address,uint256,uint256,bytes)": {
        "details": "Transfers `value` amount of an `id` from the `from` address to the `to` address specified. Caller must be approved to manage the tokens being transferred out of the `from` account. If `to` is a smart contract, will call `onERC1155Received` on `to` and act appropriately.",
        "params": {
          "data": "Data forwarded to `onERC1155Received` if `to` is a contract receiver",
          "from": "Source address",
          "id": "ID of the token type",
          "to": "Target address",
          "value": "Transfer amount"
        }
      },
      "setApprovalForAll(address,bool)": {
        "details": "Sets or unsets the approval of a given operator.     * An operator is allowed to transfer all tokens of the sender on their behalf.     * Because an account already has operator privileges for itself, this function will revert if the account attempts to set the approval status for itself.",
        "params": {
          "approved": "representing the status of the approval to be set",
          "operator": "address to set the approval"
        }
      },
      "supportsInterface(bytes4)": {
        "details": "See {IERC165-supportsInterface}.     * Time complexity O(1), guaranteed to always use less than 30 000 gas."
      },
      "transfer(address,uint256,uint256)": {
        "details": "transfers the value to the 'to' account for tokenId",
        "params": {
          "to": ": recipient address ",
          "tokenId": ": tokenId for the transfer",
          "value": ": amount of transfer Transfer can start only when both parties are registered and the token is not paused"
        }
      },
      "unregisterDealer(address,uint256)": {
        "details": "Only CBD (Owner or address(0)) can unregister Dealers",
        "params": {
          "account": ": address to be unregistered",
          "tokenId": ": tokenId for the transfer Only accounts with 0 balance can be unregistered "
        }
      }
    }
  },
  "userdoc": {
    "methods": {
      "isApprovedForAll(address,address)": {
        "notice": "Queries the approval status of an operator for a given account."
      }
    }
  }
}